:020000040800F2
:10000000700A00207D360008A9340008AB340008CF
:10001000AD340008AF340008B1340008000000001F
:10002000000000000000000000000000B3340008E1
:10003000B534000800000000B7340008B9340008E7
:10004000AD360008B1360008B5360008B9360008EC
:10005000BD360008C1360008C5360008C93600089C
:10006000CD360008D1360008D5360008D93600084C
:10007000DD360008E1360008E5360008E9360008FC
:10008000ED360008F1360008F5360008F9360008AC
:10009000FD3600080137000805370008C1340008A4
:1000A000093700080D370008113700081537000818
:1000B000193700081D3700082137000825370008C8
:1000C000293700082D370008313700083537000878
:1000D000393700083D370008413700084537000828
:1000E000DF340008493700084D3700085137000851
:1000F00055370008593700085D3700086137000898
:1001000065370008693700086D3700087137000847
:1001100075370008793700087D37000881370008F7
:1001200085370008893700088D37000891370008A7
:1001300095370008993700089D370008A137000857
:10014000A5370008A9370008AD370008B137000807
:10015000B5370008B9370008BD370008C1370008B7
:10016000C5370008C9370008CD370008D137000867
:10017000D5370008D9370008000000000000000053
:10018000DD370008E13700082DE9FE4F0500002D9E
:1001900001D101201BE3DFF89898D9F8004014F052
:1001A0000C04DFF82489D8F8007017F003072878CA
:1001B000C00640F1C680002C03D00C2C7AD1012F50
:1001C00078D1DFF868A8DAF80000800704D5A869BC
:1001D000002801D10120FAE2DAF80000000704D576
:1001E000DAF8000010F0F00005E0DFF8E008006841
:1001F000000910F0F000296A88421ED2286A00F037
:100200001DFC002801D00120E1E2DAF8000050F0E6
:100210000800CAF80000DAF8001031F0F001286A8E
:100220000143CAF80010DFF8A808016831F47F41E3
:10023000EA6951EA022101601FE0DAF8000050F09B
:100240000800CAF80000DAF8001031F0F001286A5E
:100250000143CAF80010DFF87808016831F47F41E3
:10026000EA6951EA02210160002C06D1286A00F0F7
:10027000E5FB002801D00120A9E200F050FBDFF8E7
:100280005418D9F80020C2F30312895C11F01F0141
:10029000C840DFF8A0170860DFF89C07006800F08E
:1002A0002FFC8DF800009DF80000002849D09DF833
:1002B00000008CE2A86900282DD0DFF87097D9F8EB
:1002C000000050F00100C9F8000000F049FC0600F1
:1002D000D9F80000800706D400F042FC801B0328F8
:1002E000F6D3032073E2D9F8000050F00800C9F8F3
:1002F0000000D9F8001031F0F001286A0143C9F874
:100300000010DFF8CC07016831F47F41EA6951EA57
:100310000221016015E0DFF81497D9F800004008C9
:100320004000C9F8000000F01BFC0600D9F80000EE
:10033000800706D500F014FC801B0328F6D30320A9
:1003400045E22878C00754D5082C03D00C2C0BD1DB
:10035000032F09D1DFF8D4060068800349D5686807
:10036000002846D1012032E26868B0F5803F06D10E
:10037000DFF8B806016851F48031016018E0686860
:10038000B0F5A02F0AD1DFF8A406016851F480214E
:100390000160016851F48031016009E0DFF88C06EA
:1003A000016831F480310160016831F4802101601D
:1003B000686800280ED000F0D3FB0600DFF86C065A
:1003C0000068800315D400F0CBFB801B6528F5D3B3
:1003D0000320FCE100F0C4FB0600DFF850060068D3
:1003E000800306D500F0BCFB801B6528F5D30320F5
:1003F000EDE12878800752D5042C03D00C2C15D1C0
:10040000022F13D1DFF824060068400504D5E86800
:10041000002801D10120DAE1DFF8B406016831F0EB
:10042000F8512A6951EA0261016038E0E868002861
:100430001FD0DFF8F895D9F8000050F48070C9F8A3
:10044000000000F08DFB0600D9F80000400506D43E
:1004500000F086FB801B0328F6D30320B7E1DFF80A
:100460007006016831F0F8512A6951EA02610160B1
:1004700015E0DFF8B895D9F8000030F48070C9F8BD
:10048000000000F06DFB0600D9F80000400506D51D
:1004900000F066FB801B0328F6D3032097E1287841
:1004A00000072ED56869002815D0DFF82096D9F806
:1004B000000050F00100C9F8000000F051FB0600F8
:1004C000D9F8000080071CD400F04AFB801B0328E9
:1004D000F6D303207BE1DFF8F495D9F8000040085B
:1004E0004000C9F8000000F03BFB0600D9F800000E
:1004F000800706D500F034FB801B0328F6D30320C9
:1005000065E12878400740F181805FF00009DFF85D
:10051000C8A5DAF80000C0000DD4DAF8000050F0E9
:100520008050CAF80000DAF8000010F08050019006
:10053000019801208146DFF8A4B5DBF80000C00572
:1005400013D4DBF8000050F48070CBF8000000F00A
:1005500007FB0600DBF80000C00506D400F000FB36
:10056000801B0328F6D3032031E1A868012806D1B7
:10057000DFF86C05016851F00101016017E0A8681F
:1005800005280AD1DFF85805016851F0040101601F
:10059000016851F00101016009E0DFF844050168DC
:1005A000490849000160016831F004010160A86850
:1005B000002810D000F0D4FA0600DFF82405006807
:1005C000800719D400F0CCFA801B41F289318842AF
:1005D000F3D30320FBE000F0C3FA0600DFF80005C8
:1005E0000068800708D500F0BBFA801B41F2893112
:1005F0008842F3D30320EAE04846C0B2012805D17F
:10060000DAF8000030F08050CAF80000A86A00282C
:1006100000F0DC80A86A022840F0AC80D8F8000026
:10062000070017F00300E96A884226D117F070002E
:10063000296B491EB0EB011F1FD117F4FE40696BF7
:10064000B0EB012F19D1A86B072801D1002000E0E1
:10065000012017F4003181420FD117F4C000E96B7B
:100660004908491EB0EB415F07D117F0C060296C03
:100670004908491EB0EB416F5CD00C2C58D0DFF814
:10068000ACA3DAF80000400103D4DAF80000C0009F
:1006900001D501209BE0DAF8000030F08070CAF844
:1006A000000000F05DFA8146DAF80000800107D50D
:1006B00000F056FAB0EB09000328F5D3032086E0DA
:1006C000D8F80010DFF81C040140E86A0143286BE9
:1006D000401E51EA0011686B51EA0021E86B4008A6
:1006E000401E51EA4051286C4008401E51EA4061CA
:1006F000A86B000951EA4041C8F80010DAF8000080
:1007000050F08070CAF80000D8F8000050F08070F7
:10071000C8F8000000F024FA0600DAF800008001B2
:1007200054D400F01DFA801B0328F6D303204EE0BA
:1007300001204CE0DFF8F492D9F80000800145D4A4
:10074000D9F8000050F08070C9F80000D8F8000017
:1007500050F08070C8F8000000F002FA0600D9F8E6
:100760000000800132D400F0FBF9801B0328F6D38F
:1007700003202CE00C2C27D0DFF8B092D9F8000031
:1007800030F08070C9F80000D9F8000010F0205F48
:1007900005D1D8F8000080088000C8F80000D8F81B
:1007A0000010DFF844030140C8F8001000F0D8F949
:1007B0000600D9F80000800108D500F0D1F9801BAF
:1007C0000328F6D3032002E0012000E00020BDE86A
:1007D000FE8F2DE9F04104000D00002C01D1012015
:1007E0009BE0DFF80873386810F00700A8420BD2CE
:1007F0003868C008C00028433860386810F0070027
:10080000A84201D0012088E02078C00742D5606866
:10081000032806D1DFF81402006880011CD40120EF
:100820007BE06068022806D1DFF8000200688003E0
:1008300012D4012071E06068002806D1DFF8EC01D5
:100840000068800708D4012067E0DFF8E001006855
:10085000400501D4012060E0DFF8D481D8F8001011
:100860008908890060680143C8F8001000F078F931
:100870000600D8F8000010F00C006168B0EB810FA2
:1008800008D000F06DF9801B41F289318842F0D325
:10089000032042E02078800706D565490A6832F0D7
:1008A000F002A06802430A60386810F00700854231
:1008B0000BD23868C008C00028433860386810F090
:1008C0000700A84201D0012027E02078400706D584
:1008D00057490A6832F4E062E06802430A6020780F
:1008E000000707D55248016831F46051226951EA86
:1008F000C201016000F013F8DFF8D8114C4A126809
:10090000C2F30312895C11F01F01C8404949086015
:100910004948006800F0F4F8C0B2BDE8F0812DE964
:10092000F041002600204249096811F00C01DFF86F
:1009300098C1DCF8007017F00307002903D00C29D8
:100940001AD1012F18D1DFF8E4E0DEF800805FEA69
:10095000087806D4DFF874E1DEF800E0CEF3032E69
:1009600003E0DEF800E0CEF3031E614E56F82E6081
:1009700000290CD130000AE0042903D1DFF874E12A
:10098000704604E0082902D1DFF86CE170460C29BA
:100990002DD1DCF800E01EF0030E73469E46BEF13A
:1009A000020F03D0BEF1030F03D005E0DFF844E1EE
:1009B00003E0DFF844E100E0B646DCF80020C2F3D3
:1009C0000212521C1500DCF80020C2F3062202FBC2
:1009D0000EFEBEFBF5F2DCF800C0CCF3416C1CF15E
:1009E000010C5FEA4C0C6446B2FBF4FC6046BDE8C7
:1009F000F08110480068704780B5FFF7FAFF3F4963
:100A00000B4A1268C2F30222895C11F01F01C84030
:100A100002BD80B5FFF7EDFF3849054A1268C2F301
:100A2000C222895C11F01F01C84002BD00100240C3
:100A30000810024004000020000000207CB50400E3
:100A40000025254E3068C00003D500F08FF8010066
:100A50000FE0306850F080503060306810F0805007
:100A60000090009800F082F80100306830F080506B
:100A70003060B1F5007F09D1812C15D3A12C02D3B0
:100A80000220050010E0012005000DE0812C02D3BA
:100A90000320050008E0802C02D10220050003E0BD
:100AA000702C01D10120050010480268D208D20044
:100AB0002A430260006810F00700A84201D001201C
:100AC00000E0002076BD00000C10024094100240AF
:100AD000041002406C3600085810024000700040BC
:100AE000901002408C809DF9FFFFEEFE0020024036
:100AF000843500080024F40000127A00A4360008AF
:100B000038B5040000251349087800281DD04FF49B
:100B10007A700978B0FBF1F00F490968B1FBF0F089
:100B200000F00DF900280DD1102C08D20022210070
:100B30005FF0FF3000F0E7F80848046007E00120AC
:100B4000050004E00120050001E001200500280067
:100B5000C0B232BD080000200400002000000020C8
:100B600001480068704700BF64060020DFF88C0071
:100B7000006810F4C06070470200B2F5007F26D113
:100B8000DFF87800036813F4C063B3F5007F2CD05E
:100B9000036833F4C06353F400730360DFF860004C
:100BA000036832204343DFF85C00B3FBF0F0401CE5
:100BB0000100DFF8540003685B0503D5002901D06C
:100BC000491EF6E7006840050FD503200EE0DFF868
:100BD0002C00036813F4C063B3F5806F05D003687D
:100BE00033F4C06353F48063036000207047DFF880
:100BF0001C00016851F48061016070470070004082
:100C00000400002040420F001470004004700040B7
:100C100010B410F00703DFF8344122684FF6FF01EB
:100C20000A40DFF82C1151EA03210A43226010BC6C
:100C30007047DFF818010068C0F302207047000019
:100C4000010049B2002909D4012210F01F018A4095
:100C5000404903005BB25B0941F82320704710B4A0
:100C6000020052B2002A05D40A013B4B040064B2D0
:100C70001A5508E00A01394B040064B214F00F045D
:100C8000234403F8042C10BC704770B4030013F025
:100C90000704D4F10700052801D3042001E0D4F1B2
:100CA0000700251D072D01D2002500E0E51E0126C5
:100CB00016FA00F0401E0140A94016FA05F56D1E17
:100CC0002A401143080070BC704710B50400601E34
:100CD000B0F1807F01D301200EE0601E2049086042
:100CE0000F215FF0FF30FFF7BAFF00201D490860B9
:100CF00007201D490860002010BD10B50400200029
:100D0000FFF786FF10BD2DE9F04104000D0016002D
:100D10000027FFF78EFF8046320029004046FFF78C
:100D2000B4FF0100200040B2FFF799FFBDE8F08159
:100D300010B50400200040B2FFF782FF10BD10B5CF
:100D400004002000FFF7C1FF10BD00000CED00E023
:100D50000000FA0500E100E000E400E018ED00E02A
:100D600014E000E018E000E010E000E02DE9F84FAA
:100D700005005FF0000800272868000531D5686E7F
:100D8000002810D0B0F5800F13D0B0F5000F03D0BD
:100D9000B0F5400F14D014E0DFF8FC03016851F403
:100DA000803101600FE00021281D00F006FA804626
:100DB00009E0002115F1200000F0C1FA804602E0B0
:100DC00001E0012080464046C0B2002808D1DFF88B
:100DD000CC130A6832F44002686E02430A6000E0F5
:100DE00047462868C00431D5A86E002810D0B0F15D
:100DF000807F13D0B0F1007F03D0B0F1407F14D0DA
:100E000014E0DFF89403016851F4803101600FE0D1
:100E10000021281D00F0D1F9804609E0002115F1DC
:100E2000200000F08CFA804602E001E001208046BC
:100E30004046C0B2002808D1DFF860130A6832F0DB
:100E40004072A86E02430A6000E0474628688003AB
:100E50007CD55FF00009DFF848A3DAF80000C00095
:100E60000DD4DAF8000050F08050CAF80000DAF82B
:100E7000000010F080500090009801208146DFF8BB
:100E800024B3DBF8000050F48070CBF80000FFF7CB
:100E900067FE0600DBF80000C00506D4FFF760FE21
:100EA000801B0328F6D3032080464046C0B20028AA
:100EB00041D1DFF8F4B2DBF8000010F44070040018
:100EC000002C16D0D5F88400844212D0DBF8000044
:100ED00030F440700400DBF8000050F48030CBF8B0
:100EE0000000DBF8000030F48030CBF80000CBF8D5
:100EF0000040E0070FD5FFF733FE0600DBF80000E7
:100F0000800708D4FFF72CFE801B41F2893188420C
:100F1000F4D3032080464046C0B2002809D1DBF854
:100F2000001031F44071D5F884000143CBF8001073
:100F300002E0474600E047464846C0B2012805D1D6
:100F4000DAF8000030F08050CAF800002878C007B6
:100F500007D5DFF848120A6892089200A86B02438E
:100F60000A602878800707D5DFF830120A6832F067
:100F70000C02E86B02430A602878400707D5DFF8C7
:100F80001C120A6832F03002286C02430A6028788A
:100F9000000707D5DFF804120A6832F0C002686C57
:100FA00002430A602878C00607D5DFF8F0110A6806
:100FB00032F44072A86C02430A602878800607D594
:100FC000DFF8D8110A6832F44062E86C02430A6024
:100FD0002868800507D5DFF8C4110A6832F440227A
:100FE000E86D02430A602868400507D5DFF8AC11B8
:100FF0000A6832F44012286E02430A6028784006DC
:1010000007D5DFF898110A6832F44052286D024380
:101010000A602878000607D5DFF880110A6832F4E4
:101020004042686D02430A602868C00507D5DFF8B2
:101030006C110A6832F44032A86D02430A602868D5
:1010400080041FD5DFF854110A6832F04062E86E60
:1010500002430A60E86EB0F1006F05D14E480168A6
:1010600051F4801101600DE0E86EB0F1806F09D19C
:101070000121281D00F0A1F880464046C0B200289A
:1010800000D04746286800031FD5DFF810110A6812
:1010900032F04062286F02430A60286FB0F1006F9F
:1010A00005D13D48016851F4801101600DE0286FC1
:1010B000B0F1806F09D10121281D00F07EF8804633
:1010C0004046C0B2002800D04746286840031FD5DC
:1010D000DFF8C8100A6832F04062686F02430A60A5
:1010E000686FB0F1006F05D12B48016851F4801191
:1010F00001600DE0686FB0F1806F09D10121281DFA
:1011000000F05BF880464046C0B2002800D0474659
:101110002868400425D5DFF884100A6832F0405270
:10112000A86F02430A60A86FB0F1805F0AD1022164
:10113000281D00F042F880464046C0B2002810D07A
:1011400047460EE0A86FB0F1005F0AD1022115F109
:10115000200000F0F4F880464046C0B2002800D0DD
:1011600047462868000407D5DFF830100A6832F0D7
:101170008042E86F02430A602868C00308D5DFF8A0
:101180001C100A6822F00042D5F8800002430A6071
:101190003800C0B2BDE8F28F0C1002408810024047
:1011A000581002400070004090100240DFF8E40246
:1011B000016851F00401016070472DE9F04105001C
:1011C0000C000027DFF8C812086810F0030F12D0D7
:1011D000086810F003002A68904209D128680028A6
:1011E00006D00868C0F30210401C6968884235D0F8
:1011F0000120070032E02868012804D01ED303280C
:1012000011D008D31AE0DFF88C020068800701D4FF
:101210000120070014E0DFF87C020068400501D4DB
:10122000012007000CE0DFF86C020268920304D48E
:101230000068400301D40120070001E001200700FD
:101240003800C0B2002809D10A6832F07302286859
:1012500002436868401E52EA00120A603800C0B2B9
:10126000002868D1DFF82C82D8F8000030F08060C8
:10127000C8F80000FFF774FC0600D8F80000000171
:1012800006D5FFF76DFC801B0328F6D3032007006B
:101290003800C0B200284ED1002C0ED1DFF8F81172
:1012A0000A68DFF8F8010240A86852EA0022E868FC
:1012B000000952EA40420A6020E0012C0FD1DFF819
:1012C000D8110A68DFF8D8010240A86852EA002263
:1012D00028694008401E52EA40520A600EE0DFF8DA
:1012E000B8110A68DFF8BC010240A86852EA00227F
:1012F00068694008401E52EA40620A60D8F800005F
:1013000050F08060C8F80000FFF72AFC0600D8F80B
:101310000000000106D4FFF723FC801B0328F6D34E
:10132000032007003800C0B2002804D15A490A68D7
:10133000A86902430A603800C0B2BDE8F0812DE917
:10134000F04105000C0000275149086810F0030F18
:1013500012D0086810F003002A68904209D128686A
:10136000002806D00868C0F30210401C6968884253
:1013700032D0012007002FE02868012804D01BD3B9
:1013800003280FD007D317E042480068800701D434
:101390000120070012E03F480068400501D4012009
:1013A00007000BE03B480268920304D40068400346
:1013B00001D40120070001E0012007003800C0B27D
:1013C000002809D10A6832F073022868024368686D
:1013D000401E52EA00120A603800C0B2002852D102
:1013E000DFF8B080D8F8000030F08050C8F8000076
:1013F000FFF7B6FB0600D8F80000800006D5FFF71F
:10140000AFFB801B0328F6D3032007003800C0B2CF
:10141000002838D1002C0CD123490A681F4802400B
:10142000A86852EA0022E868000952EA40420A60CD
:101430000CE01D490A681B480240A86852EA0022D5
:1014400028694008401E52EA40620A60D8F800004D
:1014500050F08050C8F80000FFF782FB0600D8F873
:101460000000800006D4FFF77BFB801B0328F6D327
:10147000032007003800C0B2002804D10A490A68D6
:10148000686902430A603800C0B2BDE8F08100001C
:101490000C1002400010024010100240FF80FDFFBF
:1014A000FF809FFFFF80FFF91410024010B5040079
:1014B000002C01D1012035E0A0690028FFD1606F28
:1014C000002805D1002084F87000200000F03CFBCB
:1014D0002420606720680068400840002168086098
:1014E000200000F020F8012801D101201AE0606AF4
:1014F000002802D0200000F0D5F92068406830F4C0
:101500009040216848602068806830F02A00216897
:1015100088602068006850F00100216808602000A1
:1015200000F02DFA10BD2DE9F04704000026DFF889
:10153000501320688842FFD0A26820690243606986
:101540000243E069024320680368DFF83803034080
:101550001343206803602068436833F44053E06815
:10156000034320684360D4F818802068884202D082
:10157000206A50EA08082068806830F4306058EA31
:101580000000226890602068DFF8FC22904216D1AB
:10159000DFF8F802006810F00300002805D00228E8
:1015A00005D006D3032806D007E0012796E00227DE
:1015B00094E0042792E0082790E010278EE020684E
:1015C000DFF8CC22904217D1DFF8C002006810F09B
:1015D0000C00002806D0042808D0082804D00C28C5
:1015E00006D007E0002779E0022777E0042775E0BE
:1015F000082773E0102771E02068A64A904216D1B0
:10160000A248006810F03000002806D0102808D04A
:10161000202804D0302806D007E000275EE002270B
:101620005CE004275AE0082758E0102756E02068BD
:10163000994A904216D19548006810F0C0000028E1
:1016400006D0402808D0802804D0C02806D007E063
:10165000002743E0022741E004273FE008273DE060
:1016600010273BE020688D4A904219D187480068D6
:1016700010F44070002809D0B0F5807F0AD0B0F592
:10168000007F05D0B0F5407F06D007E0002725E0B9
:10169000022723E0042721E008271FE010271DE090
:1016A0002068884219D17948006810F44060002809
:1016B00009D0B0F5806F0AD0B0F5006F05D0B0F555
:1016C000406F06D007E0002708E0022706E0042765
:1016D00004E0082702E0102700E010272068884275
:1016E00046D13800C0B2002806D0022808D004280D
:1016F00009D008280BD00DE0FFF77EF981460DE0F8
:10170000DFF89C910AE0FFF70AF9814606E04FF402
:10171000004903E05FF0000901200600B9F1000F65
:1017200000F0A580616803204143894505D36168C5
:101730004FF480504143494502D20120060096E013
:101740004FF48072606840080021E2FB0901626882
:10175000002300F063FA0500B5F5407F05D3B5F529
:10176000801F02D22068C56081E0012006007EE073
:10177000E069B0F5004F42D13800C0B2002808D06F
:1017800001280AD002280CD004280DD008280FD038
:1017900011E0FFF731F9814611E0FFF73AF9814690
:1017A0000DE0DFF8FC900AE0FFF7B9F8814606E0AB
:1017B0004FF4004903E05FF0000901200600B9F191
:1017C000000F54D06068400810EB49006168B0FB1E
:1017D000F1F080B20500102D0ED3B5F5803F0BD28D
:1017E0004FF6F0712940C5F3420001438A46504646
:1017F00080B22168C8603AE00120060037E0380076
:10180000C0B2002808D001280AD002280CD0042831
:101810000DD008280FD011E0FFF7EEF8814611E057
:10182000FFF7F7F881460DE0DFF874900AE0FFF764
:1018300076F8814606E04FF4004903E05FF00009C6
:1018400001200600B9F1000F11D0606819EB5000BB
:101850006168B0FBF1F080B20500102D05D3B5F53D
:10186000803F02D22068C56001E001200600002010
:101870002066002060663000C0B2BDE8F08700003E
:1018800000800040F369FFEF0038014088100240FB
:101890000044004000480040004C00400050004020
:1018A0000024F40090F82410C90707D501684A689D
:1018B00032F40032816A0A4301684A6090F82410C9
:1018C000890707D501684A6832F48032C16A0A4341
:1018D00001684A6090F82410490707D501684A68F2
:1018E00032F48022016B0A4301684A6090F82410A8
:1018F000090707D501684A6832F40042416B0A4380
:1019000001684A6090F82410C90607D501688A6802
:1019100032F48052816B0A4301688A6090F8241087
:10192000890607D501688A6832F40052C16B0A4300
:1019300001688A6090F82410490613D501684A6846
:1019400032F48012016C0A4301684A60016CB1F5FF
:10195000801F07D101684A6832F4C002416C0A4313
:1019600001684A6090F82410090607D501684A68A2
:1019700032F40022816C0A4301684A60704738B52E
:1019800004000020E067FFF7EBF80500206800681E
:1019900000070DD57FF07E4000902B0000225FF401
:1019A0000011200000F01FF8002801D0032019E0EA
:1019B0002068006840070DD57FF07E4000902B0026
:1019C00000225FF48001200000F00DF8002801D013
:1019D000032007E0202060672020A067002084F813
:1019E0007000002032BD2DE9F04105000E00904648
:1019F0001F00069C2868C0693040B04201D1012018
:101A000000E000204146C9B2884241D114F1010FE3
:101A1000F0D0FFF7A5F8C01B844201D3002C14D1ED
:101A20002868006830F4D0702968086028688068E9
:101A30004008400029688860202068672020A86747
:101A4000002085F87000032023E028680068400724
:101A5000D0D52868C0690005CCD54FF4006029684E
:101A600008622868006830F4D07029680860286827
:101A7000806840084000296888602020686720202E
:101A8000A8672020E867002085F87000032000E0A8
:101A90000020BDE8F08130B4002513E050F8042B9D
:101AA000D30744BFA9F101039A18091F042942F87A
:101AB000045BFAD213468C0744BF15809B1CC907F0
:101AC00048BF1D7050F8041B0029E7D130BC704797
:101AD00080B54948494901605FF4E1314160002126
:101AE00081600021C160002101610C214161002160
:101AF00081610021C1610021016200214162FFF783
:101B0000D5FC002801D000F033FA01BD80B53C4877
:101B10003C4901605FF4E1314160002181600021B6
:101B2000C160002101610C2141610021816100211E
:101B3000C1610021016200214162FFF7B7FC00286A
:101B400001D000F015FA01BD10B586B004001422D2
:101B50000021684600F00DFA20682849884222D109
:101B60002948016851F480410160006810F4804008
:101B7000059005982548016851F002010160006850
:101B800010F0020005900598C020009002200190FE
:101B900000200290032003900720049069461C480F
:101BA00000F008FA26E020681649884222D1194838
:101BB000016851F480210160006810F480200590D4
:101BC00005981248016851F008010160006810F0A2
:101BD0000800059005984FF4407000900220019095
:101BE00000200290032003900720049069460A48D1
:101BF00000F0E0F906B010BD1404002000380140E8
:101C00009404002000480040601002404C10024044
:101C10000004004858100240000C0048BBBBE1B172
:101C2000B2F5803F80F07E80022A1ED98C46B1FB3F
:101C3000F2F102FB11C31B0443EA1043B3FBF2FCB5
:101C400002FB1C3380B240EA0343B3FBF2F002FB19
:101C5000103240EA0C4000237047022A05D984461E
:101C6000B0FBF2F002FB10C270474AB105D100F0A0
:101C7000010249085FEA30007047002200237047E4
:101C800000F0D4BA0B0002000021002070479042FF
:101C900071EB030CF6D3B3F5803F2FD2F0B5B3FA56
:101CA00083F7B1FA81F4A7F10F0E3D1B5340CEF13B
:101CB000200602FA0EF2F3415340B5F10F0746D861
:101CC0000F3C2C444140C4F12006A040F14141406A
:101CD000B1FBF3F603FB1611A2FB0645001BA9415D
:101CE00002D2761E8018594180EA010221FA0EF3D1
:101CF00062FA0EF200215A403046F0BD30B4B1FB1A
:101D0000F3FC03FB1C11A2FB0C45001BA94103D2F1
:101D1000ACF1010C8018594130BC02460B466046BC
:101D200000217047B2F1807F65D3F0B5B2FA82F737
:101D3000B1FA81F4C7F10F063D1B22FA06F307F151
:101D4000110EF24120355A40B5F10F07B8D9414084
:101D5000C4F12006A040F1414140B1FBF3FC03FB7C
:101D60001C11A2FB0C45001BA94103D2BCF1010CC4
:101D7000801859410F2F12D30F3FC90341EA504138
:101D8000B1FBF3F603FB1611A2FB0645D4EBC03002
:101D9000A94102D2761E8018594146EACC3C07B3CD
:101DA0004140C7F12006B840F1414140B1FBF3F694
:101DB00003FB1611A2FB0645001BA94102D2761EA9
:101DC0008018594180EA010221FA0EF3C7F120047C
:101DD00062FA0EF20CFA07F05A402CFA04F1304382
:101DE000F0BD80EA010221FA0EF3002162FA0EF240
:101DF00060465A40F0BD8C46B1FBF2F102FB11C3C4
:101E00001B0243EA1063B3FBF2FC02FB1C331B0210
:101E10004CEA002043EA1063B3FBF2FC02FB1C33E4
:101E20001B024CEA002043EA1063B3FBF2FC02FB06
:101E30001C331B024CEA002043EA1063B3FBF2FCA4
:101E400002FB1C324CEA00200023704780B500F0F2
:101E5000EFF900F011F800F0FDF900F075FB00F06B
:101E6000D7FB00F03FFC00F08FFCFFF731FEFFF7DF
:101E70004DFE00F0EDFCFEE780B5B8B04422002135
:101E800005A800F076F814220021684600F071F8E9
:101E90008822002116A800F06CF800F051FD3248AD
:101EA000016831F0180101601420059001200790AD
:101EB00001200B9000200C9060200D9002200F90CC
:101EC00001201090012011902820129007201390DB
:101ED000022014900220159005A8FEF755F900285D
:101EE00001D000F045F80F20009003200190002061
:101EF0000290002003900020049004216846FEF721
:101F000068FC002801D000F033F818481690002033
:101F100024900020269000202B90002036905FF027
:101F2000806031900120179001201890182019909E
:101F300007201A9002201B9002201C905FF4801052
:101F40001D9016A8FEF712FF002801D000F010F82F
:101F50004FF40070FEF710FE002801D000F008F8E2
:101F6000FFF724F939B000BD901002408520010030
:101F7000704710B5044610460A460146204600F058
:101F8000E7FC204610BD30B40EE00268436802440E
:101F90000830DC0744BFA9F10104E31852F8045BE0
:101FA00043F8045B091FF9D150F8041B0029ECD158
:101FB00030BC7047F8B4030000250868E8400028EA
:101FC00000F0F88001260F6816FA05F007403A0085
:101FD000002A00F0ED804868012808D048680228EF
:101FE00005D04868112802D04868122821D19F687E
:101FF0005FF0030C2800C0B240001CFA00FC37EA76
:102000000C07D1F80CC02800C0B240001CFA00FC3C
:102010005CEA07079F60D3F804C016FA05F03CEAB3
:10202000000C4868C0F30010A84050EA0C0C64464D
:102030005C60087910F00300032809D1D86AAE402B
:10204000B0434E68C6F3C006AE4030430400DC62C5
:10205000DE6803272800C0B2400017FA00F086436C
:10206000D1F808C02800C0B240001CFA00FC5CEAAD
:102070000606DE604868022802D0486812281ED191
:102080002800C00803EB8000046A5FF00F0C15F015
:102090000700C0B280001CFA00FC34EA0C04D1F83E
:1020A00010C015F00700C0B280001CFA00FC5CEA0A
:1020B000040426002800C00803EB800006621C68A8
:1020C0002800C0B240008740BC430F7917F00307D7
:1020D0002800C0B2400087403C431C604868C000F4
:1020E00066D54448066856F001060660006810F0A0
:1020F000010000900098404F2800800857F82060A9
:102100005FF00F0C15F00300C0B280001CFA00FC59
:1021100036EA0C06B3F1904F01D100241EE0374897
:10212000834201D1012419E03548834201D10224C0
:1021300014E03448834201D103240FE03248834243
:1021400001D104240AE03148834201D1052405E08D
:102150002F48834201D1062400E0072415F0030034
:10216000C0B28000844026432800800847F82060E1
:10217000284C206890434F68FF0300D5104320602F
:10218000254E346894434F68BF0300D51443346030
:10219000224E306890434F68FF0200D510433060F4
:1021A0001F4E346894434F68BF0200D51443346017
:1021B0006D1C02E7F1BC70471300DBB2002B03D0AB
:1021C0000B009BB2836102E00B009BB283627047FD
:1021D00010B5040013480168220092B2114206D0E3
:1021E000210089B20160200080B200F01DF810BD0E
:1021F0000000000060100240080001400004004898
:1022000000080048000C0048001000480014004876
:102210000018004800040140040401400804014083
:102220000C04014014040140704700007047000096
:1022300010B500240320FEF760FD0020FEF760FCCF
:10224000002802D00120040001E000F0B5FB2000CE
:10225000C0B210BD2DE9F84386B0142200216846B3
:10226000FFF787FEB148016851F010010160016875
:1022700011F0100105910599016851F00401016008
:10228000016811F0040105910599016851F00101FF
:102290000160016811F0010105910599016851F093
:1022A00002010160016811F00201059105990168C0
:1022B00051F008010160006810F0080005900598D1
:1022C000DFF86C9200224FF48A714846FFF774FFE2
:1022D00048F20414002221005FF09040FFF76CFFE9
:1022E000944D00224FF214012800FFF765FF924E33
:1022F000002241F281013000FFF75EFF01224FF41E
:1023000000513000FFF758FF8C4F00224FF410713E
:102310003800FFF751FF012220212800FFF74CFF72
:10232000012201214846FFF747FF40F215100090B7
:102330000120019000200290002003906946484649
:10234000FFF738FE6A200090DFF8F481CDF80480B2
:102350000020029069464846FFF72CFE4FF40050DB
:102360000090784801900020029069463800FFF7FD
:1023700021FE3F2000900B20019000200290694632
:102380003800FFF717FE0320009002200190002084
:102390000290032003900820049069465FF090406B
:1023A000FFF708FE00940120019000200290002019
:1023B000039069465FF09040FFF7FCFD0820009015
:1023C0000220019000200290002003900120049040
:1023D00069465FF09040FFF7EDFD102000900B2064
:1023E00001900020029069465FF09040FFF7E2FD07
:1023F000E020009002200190002002900320039032
:102400000520049069465FF09040FFF7D3FD01205E
:102410000090CDF804800020029069462800FFF764
:10242000C9FD022000900B20019000200290694617
:102430002800FFF7BFFD4FF234000090012001900B
:10244000002002900020039069462800FFF7B2FDAB
:102450004CF604400090CDF80480002002906946BC
:102460003000FFF7A7FD43F28100009001200190AA
:10247000002002900020039069463000FFF79AFD8B
:102480004FF4107000900120019000200290002075
:10249000039069463800FFF78DFD4FF4C07000903F
:1024A000CDF804800020029069463800FFF782FDD5
:1024B000022000900220019000200290032003904F
:1024C0000520049069463000FFF774FD78200090E5
:1024D0000220019000200290032003900720049026
:1024E00069463000FFF766FD4FF4407000901220FF
:1024F000019001200290032003900420049069467B
:102500002800FFF757FD002200211720FEF7FBFBF4
:102510001720FEF70DFC002200212820FEF7F3FB18
:102520002820FEF705FC07B0BDE8F0834C10024000
:102530000010004800040048000C00480008004853
:10254000000011100000211080B52B482B490160BC
:1025500001210171002181600221C160002101611E
:10256000002141614FF4807181610021C16104212A
:10257000016200214162012181620021C1620021CA
:10258000016300F035FA002801D0FFF7F1FC01BD2E
:1025900038B586B004001422002101A8FFF7E9FC39
:1025A000174D2868002825D11648016851F0807120
:1025B0000160006810F08070009000981248016877
:1025C00051F010010160006810F0100000900098B8
:1025D0004FF4207001900220029000200390002010
:1025E00004900620059001A90848FFF7E3FC28683D
:1025F000401C286007B030BD080600202060014064
:1026000060060020601002404C100240001000489C
:1026100010B52E4C2E4820602E4860600020A0602F
:102620000120E06000202061002060610020A061A6
:102630000020E06100202062200000F099FA0028CC
:1026400001D0FFF795FC0021200000F0F7FA0028E8
:1026500001D0FFF78DFC0021200000F021FB0028B5
:1026600001D0FFF785FC10BD10B586B00400142220
:10267000002101A8FFF77DFC20681549884222D17E
:102680001548016851F002010160006810F0020075
:10269000009000984FF440600190122002900120B9
:1026A0000390032004900420059001A90B48FFF734
:1026B00081FC0B48016851F480010160006810F44E
:1026C00080000090009806B010BD00007805002042
:1026D00000580040EC9C90104C1002400004004850
:1026E0005810024080B5234823490160FF21416012
:1026F000012181600021C16001210161002141614E
:102700000021816100F0FEFA002801D0FFF730FCC3
:1027100001BD10B586B004001422002101A8FFF706
:1027200028FC20681449884222D11448016851F4D9
:1027300080710160006810F480700090009810486B
:10274000016851F010010160006810F01000009065
:1027500000984FF47C4001900220029000200390EA
:10276000032004900A20059001A90648FFF722FCE7
:1027700006B010BDC4050020001000A0501002409B
:102780004C1002400010004880B52C482C490160D4
:102790004FF482714160002181604FF44071C1604B
:1027A00000210161002141614FF40071816100212C
:1027B000C161002101620021416200218162072183
:1027C000C162002101630821416300F01FFB002862
:1027D00001D0FFF7CDFB01BD10B586B00400142277
:1027E000002101A8FFF7C5FB20681549884222D1C6
:1027F0001448016851F400410160006810F4004081
:10280000009000981048016851F0040101600068D0
:1028100010F00400009000984FF4E0500190022066
:10282000029000200390032004900620059001A947
:102830000648FFF7BFFB06B010BD000014050020DE
:10284000003C0040581002404C1002400008004874
:1028500080B538485FF0A041016006214160022147
:10286000C160022181610021C1610021016200215A
:10287000416200218162002101630021C16200F0F8
:1028800041FB002801D0FFF773FB01BD38B586B0CE
:1028900004001422002101A8FFF76BFB2068B0F1AF
:1028A000A04F44D1244D286850F0010028602868CA
:1028B00010F00100009000984FF40070019000208B
:1028C00002900020039001A95FF09040FFF772FB97
:1028D0004FF4E0500190022002900020039003206A
:1028E00004900A20059001A95FF09040FFF762FB79
:1028F000286850F480502860286810F480500090B8
:1029000000980E4D2868C0000FD4286850F0805001
:102910002860286810F0805000900098FEF767F952
:10292000286830F08050286001E0FEF760F907B0B9
:1029300030BD00000C0000204C1002405810024036
:102940000248016851F480710160704700700040D6
:1029500062F30F2262F31F42401810F0030308D005
:10296000C91A1FD3DB0748BF00F8012D28BF20F884
:10297000022D130030B414461546103928BF20E943
:102980003C00FAD8490728BF20E90C0048BF40F8AE
:10299000042D890028BF20F8022D48BF00F8012D22
:1029A00030BC7047C91818BF00F8012DCB0728BFED
:1029B00000F8012D7047000081B00B48016851F00C
:1029C00001010160006810F00100009000980748C4
:1029D000016851F080510160006810F08050009053
:1029E000009801B0704700BF6010024058100240CC
:1029F00038B50400002C01D101207DE0206800F0F2
:102A000083F8DFF8F85055F82000002801D00120A5
:102A100072E02000FFF7BCFDDFF8E4000168491C0C
:102A20000160006801281AD1DFF8D810086830F07A
:102A3000804008600A68A06802430A60086830F4B1
:102A40007F0008602079012805D10868E268521EDD
:102A500050EA02400860086850F0004008602068B2
:102A6000006830F4714021680860206801682269BC
:102A700060690243A0690243114320680160206835
:102A80000068000900012168086020680168E269A7
:102A9000206A02431143206801602068806830F496
:102AA0005F002168886020688068616AA26A521E9F
:102AB00051EA02410843216888602068406810F0AC
:102AC00007002168486020684068E16A226BD200F4
:102AD00052EA01221043216848602068006850F0E3
:102AE000800021680860012084F83400206800F02C
:102AF0000BF845F82040002032BD000040060020C1
:102B0000680600200060014001001248814201D1A6
:102B100000201EE01048814201D1012019E00F4839
:102B2000814201D1022014E00D48814201D10420EC
:102B30000FE00C48814201D105200AE00A48814299
:102B400001D1062005E00948814201D1072000E0BB
:102B50000320704700600140206001404060014058
:102B600080600140A0600140C0600140E060014021
:102B700010B50400002C01D101205EE094F8410062
:102B8000002805D1002084F840002000FFF76CFDEC
:102B9000242084F841002068006840084000216833
:102BA0000860606830F070602168086120688068A3
:102BB00030F4004021688860E068012805D1A068F1
:102BC00050F400402168886004E0A06850F404409C
:102BD00021688860E068022803D14FF40060216812
:102BE00048602068406840F0007050F40040216860
:102BF00048602068C06830F400402168C8602169DE
:102C000060690143A06951EA00212068C160E1695F
:102C1000206A0143206801602068006850F00100CC
:102C20002168086000206064202084F841000020B2
:102C30002063002084F84200002010BD020092F8BA
:102C4000410020282AD192F84000012801D1022019
:102C500025E0012082F84000242082F8410010681D
:102C6000006840084000136818601068006830F47D
:102C70008050136818601068006808431368186073
:102C80001068006850F0010013681860202082F876
:102C90004100002082F84000002000E00220704740
:102CA00010B4020092F84100202827D192F8400089
:102CB000012801D1022022E0012082F840002420D6
:102CC00082F84100106800684008400013681860EE
:102CD0001068036833F4706353EA012310680360DB
:102CE0001068006850F0010014682060202082F80D
:102CF0004100002082F84000002000E0022010BCCB
:102D00007047000038B50400FDF72AFF0500002CCD
:102D100001D101204BE094F8390000280AD10020AD
:102D200084F838002000FFF7F4FC41F288312000DD
:102D300000F042F82068006830F47060A168491E15
:102D400050EA012021680860206C00902B000022CE
:102D50002021200000F032F80100C9B2002922D160
:102D600021680A6812490A40616852EA0162E16812
:102D70000A4321680A6021684A680E490A402169AD
:102D800052EA014261690A43A1690A4321684A6023
:102D90002168096851F00101226811600021E16396
:102DA000012184F83910002184F83810C0B232BDF6
:102DB000EFFFFF00FEF8E0FF016470472DE9F041EE
:102DC00005000E0090461F00069C2868806830426F
:102DD00001D0012000E000204146C9B2884212D053
:102DE00014F1010FF1D0FDF7BBFEC01B844201D3EB
:102DF000002CEAD1042085F83900E86B50F001007E
:102E0000E863012000E00020BDE8F08110B5040077
:102E1000002C01D1012074E0606A002806D16068AE
:102E2000B0F5827F06D00020E06103E00020206141
:102E3000002060610020A06294F85D00002805D1A8
:102E4000002084F85C002000FFF7C6FC022084F814
:102E50005D002068006830F0400021680860E0688C
:102E600040F20171884201D3002101E04FF480510A
:102E7000E068B0F5706F05D0E068B0F5E06F01D0A4
:102E80000020A062606810F48270A26812F404420C
:102E90001043227C12F002021043227D12F0010244
:102EA0001043A26912F400721043227F12F038021C
:102EB000104394F8202012F080021043A26A12F40A
:102EC0000052104322681060A269120C12F0040232
:102ED00094F8240010F01000024394F8340010F02D
:102EE00008000243E06810F47060024311F480505F
:102EF00002432068426000202066012084F85D00C3
:102F0000002010BD70B58AB00400002C01D1012052
:102F1000B6E0266894F8BD03002805D1002084F8A7
:102F2000BC032000FFF7B2FC032084F8BD03F06B64
:102F3000C00501D400202061206800F0D8F8211DD0
:102F400083B06846342200F043FA0EBC206800F0DB
:102F500099F8002804D0022084F8BD0301208FE0F6
:102F60000021206800F0CAF800200100C9B26268A0
:102F7000914231D21C210200D2B24A4322440123A1
:102F800082F83D300200D2B24A43224482F83C002B
:102F90000200D2B24A4322440300DBB2A2F842301C
:102FA0000200D2B24A432244002382F83F3002009A
:102FB000D2B24A432244002353640200D2B24A43AD
:102FC0002244002393640200D2B201FB02F12144A7
:102FD00000220A65401CC8E700252800C0B26168CD
:102FE00088422CD21C202900C9B24143214400222E
:102FF00081F8FD212900C9B24143214481F8FC51E7
:103000002900C9B241432144002281F8FF2129004F
:10301000C9B2414321440022C1F804222900C9B2A7
:10302000414321440022C1F808222900C9B200FB13
:1030300001F020440021C0F810126D1CCDE7211DC5
:1030400083B06846342200F0C3F90EBC206800F05B
:1030500075F8002804D0022084F8BD0301200FE099
:10306000002084F83800012084F8BD03606A01283C
:1030700002D1200000F0F0F9206800F075F900207E
:103080000AB070BD0EB418B504000898012817D115
:10309000A06B30F48030A063E168DFF8C802014023
:1030A000E160E06830F44010E0600F98012803D13F
:1030B000E06850F48010E060200000F069F912E050
:1030C000E06850F04000E060200000F061F90C99E9
:1030D000002904D1A16B51F48031A16303E0A16BFD
:1030E00031F48031A163C0B212BC5DF810FB010065
:1030F00088684008400088600020704738B50400A8
:103100000D00E06830F0C040E0602800C0B2012847
:1031100004D1E06850F00050E0600AE02800C0B23E
:10312000002804D1E06850F08040E06001E0012018
:1031300003E0322000F0A4F9002032BD0EB4F0B557
:1031400004000025260000270F2F06D2002004EBE4
:103150008701C1F804017F1CF6E70F98002814D1FD
:1031600016F50060406850F0020016F500614860F6
:10317000A06B30F40010A063206850F04000206085
:10318000206850F08000206003E0A06B50F4001035
:10319000A063002016F56061086016F50060006805
:1031A00016F5006108600321200000F0CCF8102122
:1031B000200000F0A6F8002801D001200500200022
:1031C00000F0B1F8002801D001200500002016F51C
:1031D00000610861002016F500614861002016F5C5
:1031E0000061C8610020059988422DD216EB40117C
:1031F00011F510610968002911D5002807D15FF089
:10320000006116EB401212F5106211600DE05FF0E4
:10321000904116EB401212F51062116005E000219A
:1032200016EB401212F51062116016EB401111F509
:10323000106100220A6116EB401111F510614FF682
:103240007F328A60401CCEE70021059881422DD252
:1032500016EB411010F530600068002811D50029E8
:1032600007D15FF0006016EB411212F5306210607A
:103270000DE05FF0904016EB411212F530621060E5
:1032800005E0002016EB411212F53062106016EBDB
:10329000411010F530600022026116EB411010F56C
:1032A00030604FF67F328260491CCEE716F5006031
:1032B000006930F4807016F5006210610020A06192
:1032C0007FF080406061A06950F01000A061A269A9
:1032D000DFF8F4000243A2610B98002803D0A06934
:1032E00050F00800A0610F98012805D1A06940F0B6
:1032F000804050F00400A0612800C0B2F0BC5DF82E
:1033000010FB02000023880150F0200010615B1CBC
:10331000DFF8B800834201D3032003E01069800680
:10332000F5D4002070470100002210200861521CD3
:10333000DFF89800824201D3032003E00869C00649
:10334000F5D40020704710B40200130013F500609C
:1033500004680800C0B2044313F500600460002054
:1033600010BC7047BFFFBDFF01000A0012F560608E
:1033700000688008800012F56063186012F5006034
:10338000406850F0020012F500635860002070475A
:1033900010B401000022521C0C48824201D30320C9
:1033A00010E00B69002BF6D500230C6954F00104E2
:1033B0000C615B1C834201D3032003E00A69D2073E
:1033C000F7D4002010BC704700383C80410D03004A
:1033D000103A07D330B4B1E83810103AA0E83810EA
:1033E000F9D230BC530724BFB1E80810A0E8081098
:1033F00044BF51F8043B40F8043BD20724BF31F8E6
:10340000022B20F8022B44BF0B7803707047121F69
:1034100017D35B0009D151F8043B20F8023B1B0C89
:10342000121F20F8023BF6D20BE051F8043B00F8E3
:10343000013B1B0A20F8023B1B0C121F00F8013B4A
:10344000F3D238BF121D521E24BF11F8013B00F801
:10345000013BF8D87047000001000A680120C1F85C
:10346000FC03002081F8F403906950F00060906143
:10347000506D40F0805050F00300506500207047C0
:1034800070B50400FDF76CFB0500260016F1010F76
:1034900002D0044800783618FDF762FB401BB042AA
:1034A000FAD370BD080000207047FEE7FEE7FEE794
:1034B000FEE770477047704780B500F027F801BD00
:1034C00080B52020FEF784FE4020FEF781FE80209C
:1034D000FEF77EFE4FF48070FEF77AFE01BD80B5E8
:1034E0004FF48060FEF774FE4FF40060FEF770FE4C
:1034F0004FF40050FEF76CFE4FF48040FEF768FE7C
:103500004FF40040FEF764FE01BD0000034801686F
:10351000034A127889180160704700BF64060020D2
:10352000080000201048016851F4700101600F4943
:10353000086850F00100086000200D4A10600A6819
:103540000C4802400A604FF480500B4A1060086833
:1035500030F4802008600020084908605FF00060B7
:10356000074908607047000088ED00E00010024045
:1035700008100240FFFFF6EA0C100240181002404B
:1035800008ED00E0A0860100400D0300801A06004F
:1035900000350C0040420F0080841E0000093D00F1
:1035A00000127A000024F40000366E010048E801A1
:1035B000006CDC0210B5074979441831064C7C4494
:1035C000163404E00A68081D114488470146A142E8
:1035D000F8D110BD2C0000004C0000004EF68851C0
:1035E000CEF20001086840F470000860BFF34F8F0E
:1035F000BFF36F8F4FF00070E1EE100A70470000CC
:1036000097E4FFFF600600000C00002000000000AF
:1036100077E9FFFF0C0000008000000000000020A0
:103620000000000000F00DF8002801D0FFF7C2FFF5
:10363000AFF300800020AFF30080FEF707FC00F03E
:1036400002F80120704700F001B800000746384634
:1036500000F002F8FBE7000080B5AFF30080024AFB
:1036600011001820ABBEFBE726000200000000009E
:103670000000000001020304060708090148804712
:1036800001480047253500088D360008AFF300805B
:10369000FFF7A4FFFFF7C6FF1000000000093D0080
:1036A000010000000000000001020304FFF7FEBF5C
:1036B000FFF7FEBFFFF7FEBFFFF7FEBFFFF7FEBF3E
:1036C000FFF7FEBFFFF7FEBFFFF7FEBFFFF7FEBF2E
:1036D000FFF7FEBFFFF7FEBFFFF7FEBFFFF7FEBF1E
:1036E000FFF7FEBFFFF7FEBFFFF7FEBFFFF7FEBF0E
:1036F000FFF7FEBFFFF7FEBFFFF7FEBFFFF7FEBFFE
:10370000FFF7FEBFFFF7FEBFFFF7FEBFFFF7FEBFED
:10371000FFF7FEBFFFF7FEBFFFF7FEBFFFF7FEBFDD
:10372000FFF7FEBFFFF7FEBFFFF7FEBFFFF7FEBFCD
:10373000FFF7FEBFFFF7FEBFFFF7FEBFFFF7FEBFBD
:10374000FFF7FEBFFFF7FEBFFFF7FEBFFFF7FEBFAD
:10375000FFF7FEBFFFF7FEBFFFF7FEBFFFF7FEBF9D
:10376000FFF7FEBFFFF7FEBFFFF7FEBFFFF7FEBF8D
:10377000FFF7FEBFFFF7FEBFFFF7FEBFFFF7FEBF7D
:10378000FFF7FEBFFFF7FEBFFFF7FEBFFFF7FEBF6D
:10379000FFF7FEBFFFF7FEBFFFF7FEBFFFF7FEBF5D
:1037A000FFF7FEBFFFF7FEBFFFF7FEBFFFF7FEBF4D
:1037B000FFF7FEBFFFF7FEBFFFF7FEBFFFF7FEBF3D
:1037C000FFF7FEBFFFF7FEBFFFF7FEBFFFF7FEBF2D
:1037D000FFF7FEBFFFF7FEBFFFF7FEBFFFF7FEBF1D
:0437E000FFF7FEBF32
:040000050800368D2C
:00000001FF
