:020000040800F2
:1000000060040020352200080D2200080F2200089D
:100010001122000813220008152200080000000029
:10002000000000000000000000000000172200088F
:1000300019220008000000001B2200081D220008F1
:100040005D2200086122000865220008692200087C
:100050006D2200087122000875220008792200082C
:100060007D220008812200088522000889220008DC
:100070008D2200089122000895220008992200088C
:100080009D220008A1220008A5220008A92200083C
:10009000AD220008B1220008B5220008B9220008EC
:1000A000BD220008C1220008C5220008C92200089C
:1000B000CD220008D1220008D5220008D92200084C
:1000C000DD220008E1220008E5220008E9220008FC
:1000D000ED220008F1220008F5220008F9220008AC
:1000E000FD22000801230008052300080923000859
:1000F0000D23000811230008152300081923000808
:100100001D230008212300082523000829230008B7
:100110002D23000831230008352300083923000867
:100120003D23000841230008452300084923000817
:100130004D230008512300085523000859230008C7
:100140005D23000861230008652300086923000877
:100150006D23000871230008752300087923000827
:100160007D230008812300088523000889230008D7
:100170008D2300089123000800000000000000000B
:1001800095230008992300082DE9FE4F0500002D56
:1001900001D101201BE3DFF86098D9F8004014F08A
:1001A0000C04DFF8EC88D8F8007017F00307287803
:1001B000C00640F1C680002C03D00C2C7AD1012F50
:1001C00078D1DFF830A8DAF80000800704D5A869F4
:1001D000002801D10120FAE2DAF80000000704D576
:1001E000DAF8000010F0F00005E0DFF8A808006879
:1001F000000910F0F000296A88421ED2286A00F037
:1002000001FC002801D00120E1E2DAF8000050F002
:100210000800CAF80000DAF8001031F0F001286A8E
:100220000143CAF80010DFF87008016831F47F411B
:10023000EA6951EA022101601FE0DAF8000050F09B
:100240000800CAF80000DAF8001031F0F001286A5E
:100250000143CAF80010DFF84008016831F47F411B
:10026000EA6951EA02210160002C06D1286A00F0F7
:10027000C9FB002801D00120A9E200F050FBDFF803
:100280001C18D9F80020C2F30312895C11F01F0179
:10029000C840DFF868170860DFF86407006800F0FE
:1002A00011FC8DF800009DF80000002849D09DF851
:1002B00000008CE2A86900282DD0DFF83897D9F823
:1002C000000050F00100C9F8000000F02BFC06000F
:1002D000D9F80000800706D400F024FC801B032816
:1002E000F6D3032073E2D9F8000050F00800C9F8F3
:1002F0000000D9F8001031F0F001286A0143C9F874
:100300000010DFF89407016831F47F41EA6951EA8F
:100310000221016015E0DFF8DC96D9F80000400802
:100320004000C9F8000000F0FDFB0600D9F800000D
:10033000800706D500F0F6FB801B0328F6D30320C8
:1003400045E22878C00754D5082C03D00C2C0BD1DB
:10035000032F09D1DFF89C060068800349D568683F
:10036000002846D1012032E26868B0F5803F06D10E
:10037000DFF88006016851F48031016018E0686898
:10038000B0F5A02F0AD1DFF86C06016851F4802186
:100390000160016851F48031016009E0DFF8540622
:1003A000016831F480310160016831F4802101601D
:1003B000686800280ED000F0B5FB0600DFF83406B0
:1003C0000068800315D400F0ADFB801B6528F5D3D1
:1003D0000320FCE100F0A6FB0600DFF81806006829
:1003E000800306D500F09EFB801B6528F5D3032013
:1003F000EDE12878800752D5042C03D00C2C15D1C0
:10040000022F13D1DFF8EC050068400504D5E86839
:10041000002801D10120DAE1DFF87C06016831F023
:10042000F8512A6951EA0261016038E0E868002861
:100430001FD0DFF8C095D9F8000050F48070C9F8DB
:10044000000000F06FFB0600D9F80000400506D45C
:1004500000F068FB801B0328F6D30320B7E1DFF828
:100460003806016831F0F8512A6951EA02610160E9
:1004700015E0DFF88095D9F8000030F48070C9F8F5
:10048000000000F04FFB0600D9F80000400506D53B
:1004900000F048FB801B0328F6D3032097E128785F
:1004A00000072ED56869002815D0DFF8E895D9F83F
:1004B000000050F00100C9F8000000F033FB060016
:1004C000D9F8000080071CD400F02CFB801B032807
:1004D000F6D303207BE1DFF8BC95D9F80000400893
:1004E0004000C9F8000000F01DFB0600D9F800002C
:1004F000800706D500F016FB801B0328F6D30320E7
:1005000065E12878400740F181805FF00009DFF85D
:1005100090A5DAF80000C0000DD4DAF8000050F021
:100520008050CAF80000DAF8000010F08050019006
:10053000019801208146DFF86CB5DBF80000C005AA
:1005400013D4DBF8000050F48070CBF8000000F00A
:10055000E9FA0600DBF80000C00506D400F0E2FA74
:10056000801B0328F6D3032031E1A868012806D1B7
:10057000DFF83405016851F00101016017E0A86857
:1005800005280AD1DFF82005016851F00401016057
:10059000016851F00101016009E0DFF80C05016814
:1005A000490849000160016831F004010160A86850
:1005B000002810D000F0B6FA0600DFF8EC0400685E
:1005C000800719D400F0AEFA801B41F289318842CD
:1005D000F3D30320FBE000F0A5FA0600DFF8C8041F
:1005E0000068800708D500F09DFA801B41F2893130
:1005F0008842F3D30320EAE04846C0B2012805D17F
:10060000DAF8000030F08050CAF80000A86A00282C
:1006100000F0DC80A86A022840F0AC80D8F8000026
:10062000070017F00300E96A884226D117F070002E
:10063000296B491EB0EB011F1FD117F4FE40696BF7
:10064000B0EB012F19D1A86B072801D1002000E0E1
:10065000012017F4003181420FD117F4C000E96B7B
:100660004908491EB0EB415F07D117F0C060296C03
:100670004908491EB0EB416F5CD00C2C58D0DFF814
:1006800074A3DAF80000400103D4DAF80000C000D7
:1006900001D501209BE0DAF8000030F08070CAF844
:1006A000000000F03FFA8146DAF80000800107D52B
:1006B00000F038FAB0EB09000328F5D3032086E0F8
:1006C000D8F80010DFF8E4030140E86A0143286B22
:1006D000401E51EA0011686B51EA0021E86B4008A6
:1006E000401E51EA4051286C4008401E51EA4061CA
:1006F000A86B000951EA4041C8F80010DAF8000080
:1007000050F08070CAF80000D8F8000050F08070F7
:10071000C8F8000000F006FA0600DAF800008001D0
:1007200054D400F0FFF9801B0328F6D303204EE0D9
:1007300001204CE0DFF8BC92D9F80000800145D4DC
:10074000D9F8000050F08070C9F80000D8F8000017
:1007500050F08070C8F8000000F0E4F90600D9F805
:100760000000800132D400F0DDF9801B0328F6D3AD
:1007700003202CE00C2C27D0DFF87892D9F8000069
:1007800030F08070C9F80000D9F8000010F0205F48
:1007900005D1D8F8000080088000C8F80000D8F81B
:1007A0000010DFF80C030140C8F8001000F0BAF99F
:1007B0000600D9F80000800108D500F0B3F9801BCD
:1007C0000328F6D3032002E0012000E00020BDE86A
:1007D000FE8F2DE9F04104000D00002C01D1012015
:1007E0009BE0DFF8D072386810F00700A8420BD207
:1007F0003868C008C00028433860386810F0070027
:10080000A84201D0012088E02078C00742D5606866
:10081000032806D1DFF8DC01006880011CD4012028
:100820007BE06068022806D1DFF8C8010068800319
:1008300012D4012071E06068002806D1DFF8B4010D
:100840000068800708D4012067E0DFF8A80100688D
:10085000400501D4012060E0DFF89C81D8F8001049
:100860008908890060680143C8F8001000F05AF94F
:100870000600D8F8000010F00C006168B0EB810FA2
:1008800008D000F04FF9801B41F289318842F0D343
:10089000032042E02078800706D557490A6832F0E5
:1008A000F002A06802430A60386810F00700854231
:1008B0000BD23868C008C00028433860386810F090
:1008C0000700A84201D0012027E02078400706D584
:1008D00049490A6832F4E062E06802430A6020781D
:1008E000000707D54448016831F46051226951EA94
:1008F000C201016000F013F8DFF8A0113E4A12684F
:10090000C2F30312895C11F01F01C8403B49086023
:100910003B48006800F0D6F8C0B2BDE8F0812DE990
:10092000F041002600203449096811F00C01DFF87D
:1009300060C1DCF8007017F00307002903D00C2910
:100940001AD1012F18D1DFF8ACE0DEF800805FEAA1
:10095000087806D4DFF83CE1DEF800E0CEF3032EA1
:1009600003E0DEF800E0CEF3031E534E56F82E608F
:1009700000290CD130000AE0042903D1DFF83CE162
:10098000704604E0082902D1DFF834E170460C29F2
:100990002DD1DCF800E01EF0030E73469E46BEF13A
:1009A000020F03D0BEF1030F03D005E0DFF80CE126
:1009B00003E0DFF80CE100E0B646DCF80020C2F30B
:1009C0000212521C1500DCF80020C2F3062202FBC2
:1009D0000EFEBEFBF5F2DCF800C0CCF3416C1CF15E
:1009E000010C5FEA4C0C6446B2FBF4FC6046BDE8C7
:1009F000F0810000001002400810024004000020B6
:100A0000000000207CB504000025254E3068C000A1
:100A100003D500F08DF801000FE0306850F08050F1
:100A20003060306810F080500090009800F080F83E
:100A30000100306830F080503060B1F5007F09D19E
:100A4000812C15D3A12C02D30220050010E0012037
:100A500005000DE0812C02D30320050008E0802C66
:100A600002D10220050003E0702C01D10120050015
:100A700010480268D208D2002A430260006810F0D1
:100A80000700A84201D0012000E0002076BD000050
:100A90000C1002409410024004100240242200086E
:100AA0005810024000700040901002408C809DF968
:100AB000FFFFEEFE002002400C2100080024F4009D
:100AC00000127A0038B50400002513490878002880
:100AD0001DD04FF47A700978B0FBF1F00F49096826
:100AE000B1FBF0F000F0EFF800280DD1102C08D287
:100AF000002221005FF0FF3000F0D0F808480460C9
:100B000007E00120050004E00120050001E00120CC
:100B100005002800C0B232BD0800002004000020FB
:100B20000000002001480068704700BF5800002006
:100B3000DFF88000006810F4C06070470200B2F572
:100B4000007F26D1DFF86C00036813F4C063B3F5AF
:100B5000007F2CD0036833F4C06353F40073036048
:100B6000DFF85400036832204343DFF85000B3FB42
:100B7000F0F0401C0100DFF8480003685B0503D576
:100B8000002901D0491EF6E7006840050FD5032073
:100B90000EE0DFF82000036813F4C063B3F5806F44
:100BA00005D0036833F4C06353F48063036000200E
:100BB00070470000007000400400002040420F0019
:100BC0001470004010B410F00703DFF808412268E9
:100BD0004FF6FF010A40DFF8001151EA03210A43F2
:100BE000226010BC7047DFF8EC000068C0F3022000
:100BF0007047000010B4020052B2002A05D40A0166
:100C0000364B040064B21A5508E00A01344B040064
:100C100064B214F00F04234403F8042C10BC704792
:100C200070B4030013F00704D4F10700052801D3C2
:100C3000042001E0D4F10700251D072D01D2002575
:100C400000E0E51E012616FA00F0401E0140A94012
:100C500016FA05F56D1E2A401143080070BC704756
:100C600010B50400601EB0F1807F01D301200EE0BA
:100C7000601E1C4908600F215FF0FF30FFF7BAFFCC
:100C8000002019490860072018490860002010BD9D
:100C900010B504002000FFF795FF10BD2DE9F041CD
:100CA00004000D0016000027FFF79DFF804632006C
:100CB00029004046FFF7B4FF0100200040B2FFF7D3
:100CC00099FFBDE8F08110B504002000FFF7C8FFD0
:100CD00010BD00000CED00E00000FA0500E400E0AB
:100CE00018ED00E014E000E018E000E010E000E0A3
:100CF0002DE9F84F05005FF000080027286800057F
:100D000031D5686E002810D0B0F5800F13D0B0F543
:100D1000000F03D0B0F5400F14D014E0DFF8FC034F
:100D2000016851F4803101600FE00021281D00F0BE
:100D3000FFF9804609E0002115F1200000F0BAFA21
:100D4000804602E001E0012080464046C0B2002813
:100D500008D1DFF8CC130A6832F44002686E02430F
:100D60000A6000E047462868C00431D5A86E002814
:100D700010D0B0F1807F13D0B0F1007F03D0B0F17C
:100D8000407F14D014E0DFF89403016851F48031FF
:100D900001600FE00021281D00F0CAF9804609E03B
:100DA000002115F1200000F085FA804602E001E004
:100DB000012080464046C0B2002808D1DFF8601309
:100DC0000A6832F04072A86E02430A6000E04746AB
:100DD000286880037CD55FF00009DFF848A3DAF8C3
:100DE0000000C0000DD4DAF8000050F08050CAF8BE
:100DF0000000DAF8000010F0805000900098012008
:100E00008146DFF824B3DBF8000050F48070CBF8A3
:100E10000000FFF787FE0600DBF80000C00506D4DF
:100E2000FFF780FE801B0328F6D303208046404650
:100E3000C0B2002841D1DFF8F4B2DBF8000010F4B2
:100E400040700400002C16D0D5F88400844212D0E3
:100E5000DBF8000030F440700400DBF8000050F4D0
:100E60008030CBF80000DBF8000030F48030CBF8A5
:100E70000000CBF80040E0070FD5FFF753FE060057
:100E8000DBF80000800708D4FFF74CFE801B41F21E
:100E900089318842F4D3032080464046C0B20028FE
:100EA00009D1DBF8001031F44071D5F8840001431A
:100EB000CBF8001002E0474600E047464846C0B283
:100EC000012805D1DAF8000030F08050CAF800009F
:100ED0002878C00707D5DFF848120A689208920000
:100EE000A86B02430A602878800707D5DFF8301224
:100EF0000A6832F00C02E86B02430A602878400767
:100F000007D5DFF81C120A6832F03002286C024361
:100F10000A602878000707D5DFF804120A6832F063
:100F2000C002686C02430A602878C00607D5DFF863
:100F3000F0110A6832F44072A86C02430A60287803
:100F4000800607D5DFF8D8110A6832F44062E86CF1
:100F500002430A602868800507D5DFF8C4110A68D3
:100F600032F44022E86D02430A602868400507D544
:100F7000DFF8AC110A6832F44012286E02430A60AE
:100F80002878400607D5DFF898110A6832F44052F5
:100F9000286D02430A602878000607D5DFF8801123
:100FA0000A6832F44042686D02430A602868C0054E
:100FB00007D5DFF86C110A6832F44032A86D02439D
:100FC0000A60286880041FD5DFF854110A6832F0DF
:100FD0004062E86E02430A60E86EB0F1006F05D12E
:100FE0004E48016851F4801101600DE0E86EB0F1E7
:100FF000806F09D10121281D00F09AF880464046F3
:10100000C0B2002800D04746286800031FD5DFF88B
:1010100010110A6832F04062286F02430A60286F9C
:10102000B0F1006F05D13D48016851F480110160B5
:101030000DE0286FB0F1806F09D10121281D00F06B
:1010400077F880464046C0B2002800D0474628685E
:1010500040031FD5DFF8C8100A6832F04062686F9D
:1010600002430A60686FB0F1006F05D12B48016838
:1010700051F4801101600DE0686FB0F1806F09D10B
:101080000121281D00F054F880464046C0B20028D7
:1010900000D047462868400425D5DFF884100A6848
:1010A00032F04052A86F02430A60A86FB0F1805F2F
:1010B0000AD10221281D00F03BF880464046C0B20C
:1010C000002810D047460EE0A86FB0F1005F0AD1AB
:1010D000022115F1200000F0EDF880464046C0B234
:1010E000002800D047462868000407D5DFF83010F4
:1010F0000A6832F08042E86F02430A602868C00341
:1011000008D5DFF81C100A6822F00042D5F88000EC
:1011100002430A603800C0B2BDE8F28F0C100240F2
:1011200088100240581002400070004090100240A9
:101130002DE9F04105000C000027DFF8C81208680F
:1011400010F0030F12D0086810F003002A689042D4
:1011500009D12868002806D00868C0F30210401C96
:101160006968884235D00120070032E028680128EC
:1011700004D01ED3032811D008D31AE0DFF8880268
:101180000068800701D40120070014E0DFF878022E
:101190000068400501D4012007000CE0DFF8680278
:1011A0000268920304D40068400301D401200700C0
:1011B00001E0012007003800C0B2002809D10A6808
:1011C00032F07302286802436868401E52EA001237
:1011D0000A603800C0B2002868D1DFF82C82D8F845
:1011E000000030F08060C8F80000FFF79BFC0600AC
:1011F000D8F80000000106D5FFF794FC801B0328F7
:10120000F6D3032007003800C0B200284ED1002CCE
:101210000ED1DFF8F8110A68DFF8F4010240A8687F
:1012200052EA0022E868000952EA40420A6020E0DF
:10123000012C0FD1DFF8D4110A68DFF8D801024081
:10124000A86852EA002228694008401E52EA40522B
:101250000A600EE0DFF8B4110A68DFF8BC01024052
:10126000A86852EA002268694008401E52EA4062BB
:101270000A60D8F8000050F08060C8F80000FFF75E
:1012800051FC0600D8F80000000106D4FFF74AFC24
:10129000801B0328F6D3032007003800C0B20028C3
:1012A00004D15A490A68A86902430A603800C0B2EA
:1012B000BDE8F0812DE9F04105000C0000275149FF
:1012C000086810F0030F12D0086810F003002A68B5
:1012D000904209D12868002806D00868C0F302109F
:1012E000401C6968884232D0012007002FE028683E
:1012F000012804D01BD303280FD007D317E042489E
:101300000068800701D40120070012E03E48006811
:10131000400501D4012007000BE03B48026892031E
:1013200004D40068400301D40120070001E001203B
:1013300007003800C0B2002809D10A6832F07302F1
:10134000286802436868401E52EA00120A603800AA
:10135000C0B2002852D1DFF8B080D8F8000030F0D9
:101360008050C8F80000FFF7DDFB0600D8F8000049
:10137000800006D5FFF7D6FB801B0328F6D3032099
:1013800007003800C0B2002838D1002C0CD1234906
:101390000A681F480240A86852EA0022E86800096B
:1013A00052EA40420A600CE01C490A681A480240AE
:1013B000A86852EA002228694008401E52EA4062AA
:1013C0000A60D8F8000050F08050C8F80000FFF71D
:1013D000A9FB0600D8F80000800006D4FFF7A2FBA6
:1013E000801B0328F6D3032007003800C0B2002872
:1013F00004D10A490A68686902430A603800C0B229
:10140000BDE8F0810C1002400010024010100240B4
:10141000FF80FDFFFF809FFFFF80FFF91410024057
:1014200010B50400002C01D101205EE094F84100C9
:10143000002805D1002084F84000200000F0B3FA15
:10144000242084F84100206800684008400021689A
:101450000860606830F0706021680861206880680A
:1014600030F4004021688860E068012805D1A06858
:1014700050F400402168886004E0A06850F4044003
:1014800021688860E068022803D14FF40060216879
:1014900048602068406840F0007050F400402168C7
:1014A00048602068C06830F400402168C860216945
:1014B00060690143A06951EA00212068C160E169C7
:1014C000206A0143206801602068006850F0010034
:1014D0002168086000206064202084F8410000201A
:1014E0002063002084F84200002010BD2DE9FE4F4B
:1014F00083460E00170098460C9C0D9DDDF8389031
:101500009BF84100202840F0EF80002C03D02800F9
:1015100080B2002805D14FF40070CBF844000120C0
:10152000E3E09BF84000012801D10220DDE001202A
:101530008BF84000FFF7F6FA8246CDF800A0192399
:1015400001224FF40041584600F030F9002801D044
:101550000120CAE022208BF8410040208BF8420095
:101560000020CBF84400CBF82440ABF82A500020F0
:10157000CBF83400CDF804A0CDF8009043469BB2E0
:101580003A0092B2310089B2584600F0B5F800280E
:1015900004D000208BF840000120A6E0BBF82A0010
:1015A000B0F5807F10D3FF20ABF82800DFF84401AE
:1015B00000905FF08073BBF82820D2B2310089B26E
:1015C000584600F0BCF910E0BBF82A00ABF8280040
:1015D000DFF8200100905FF00073BBF82820D2B242
:1015E000310089B2584600F0AAF9CDF800A04B4668
:1015F00000220421584600F0D9F8002801D001202B
:1016000073E0DBF80000406ADBF824100870DBF8B8
:101610002400401CCBF82400BBF82800401EABF887
:101620002800BBF82A00401EABF82A00BBF82A00AD
:10163000002834D0BBF82800002830D1CDF800A015
:101640004B4600228021584600F0B0F8002801D017
:1016500001204AE0BBF82A00B0F5807F0FD3FF20BD
:10166000ABF82800002000905FF08073BBF82820C2
:10167000D2B2310089B2584600F061F90FE0BBF8F0
:101680002A00ABF82800002000905FF00073BBF840
:101690002820D2B2310089B2584600F050F9BBF888
:1016A0002A000028A1D152464946584600F0D9F8F0
:1016B000002801D0012018E02020DBF80010C861CC
:1016C000DBF800004168DFF828000140DBF800008B
:1016D000416020208BF8410000208BF84200002060
:1016E0008BF84000002000E00220BDE8FE8F0000E3
:1016F00000E800FE002400802DE9F84304000D00FE
:1017000091461E00089FDDF82480DFF860020090FB
:1017100000233200D2B2290089B2200000F00FF974
:1017200042463900200000F070F8002801D0012066
:1017300028E0300080B2012804D14846C0B22168B8
:10174000886212E0484680B2000AC0B2216888620E
:1017500042463900200000F058F8002801D001204E
:1017600010E04846C0B221688862CDF800803B0096
:1017700000224021200000F019F8002801D00120AB
:1017800000E00020BDE8F28301688969890702D57D
:1017900000210268916201688969C90705D401685E
:1017A000896951F001010268916170472DE9F041AA
:1017B00005000E0090461C00069F28688069304096
:1017C000B04201D1012000E000204146C9B2884268
:1017D00018D114F1010FF0D0FFF7A4F9C01B844217
:1017E00001D3002CE9D1686C50F0200068642020FF
:1017F00085F84100002085F84200002085F840006F
:10180000012000E00020BDE8F08170B505000C006B
:10181000160028688069800721D432002100280042
:1018200000F048F8002801D0012019E014F1010F60
:10183000EFD0FFF777F9801B844201D3002CE8D169
:10184000686C50F020006864202085F8410000207A
:1018500085F84200002085F84000012000E00020CB
:1018600070BD70B505000C00160028688069800600
:101870001ED432002100280000F01CF8002801D0FE
:10188000012016E0FFF74EF9801B844201D3002CA3
:10189000EBD1686C50F020006864202085F841008E
:1018A000002085F84200002085F84000012000E07B
:1018B000002070BD70B505000C0016002868806916
:1018C000C0063AD528688069800618D414F1010F43
:1018D000F8D0FFF727F9801B844201D3002CF1D107
:1018E000686C50F020006864202085F841000020DA
:1018F00085F84200002085F8400001201EE01020FD
:101900002968C86120202968C8612800FFF73CFFCA
:10191000286841681648014028684160686C50F0AA
:1019200004006864202085F84100002085F842000A
:10193000002085F84000012000E0002070BD70B458
:10194000039C05686D680B4E56EA5456B5430E006D
:10195000B6B2B605B60D35431600F6B255EA0645E1
:101960001D4325430668756070BC704700200080E9
:1019700000E800FEFF63FF0381B02348016851F0D7
:1019800001010160006810F00100009000981F48FC
:10199000016851F080510160006810F080500090A3
:1019A000009801B0704710B586B0040014220021E1
:1019B00001A800F033F820681549884222D1154863
:1019C000016851F002010160006810F0020000900F
:1019D00000984FF440600190122002900120039083
:1019E000032004900420059001A90B4800F020F882
:1019F0000648016851F480010160006810F480001D
:101A00000090009806B010BD6010024058100240CF
:101A1000005800404C1002400004004810B5044635
:101A200010460A460146204600F028F9204610BD1F
:101A3000F8B4030000250868E840002800F0F880AA
:101A400001260F6816FA05F007403A00002A00F058
:101A5000ED804868012808D04868022805D0486809
:101A6000112802D04868122821D19F685FF0030C2A
:101A70002800C0B240001CFA00FC37EA0C07D1F87D
:101A80000CC02800C0B240001CFA00FC5CEA07074A
:101A90009F60D3F804C016FA05F03CEA000C4868D1
:101AA000C0F30010A84050EA0C0C64465C60087952
:101AB00010F00300032809D1D86AAE40B0434E6845
:101AC000C6F3C006AE4030430400DC62DE68032784
:101AD0002800C0B2400017FA00F08643D1F808C0D1
:101AE0002800C0B240001CFA00FC5CEA0606DE607A
:101AF0004868022802D0486812281ED12800C00871
:101B000003EB8000046A5FF00F0C15F00700C0B211
:101B100080001CFA00FC34EA0C04D1F810C015F067
:101B20000700C0B280001CFA00FC5CEA0404260036
:101B30002800C00803EB800006621C682800C0B2C1
:101B400040008740BC430F7917F003072800C0B25C
:101B5000400087403C431C604868C00066D53B4855
:101B6000066856F001060660006810F0010000905B
:101B70000098374F2800800857F820605FF00F0C5E
:101B800015F00300C0B280001CFA00FC36EA0C0617
:101B9000B3F1904F01D100241EE02E48834201D1C1
:101BA000012419E02C48834201D1022414E02B487F
:101BB000834201D103240FE02948834201D1042448
:101BC0000AE02848834201D1052405E026488342E3
:101BD00001D1062400E0072415F00300C0B2800004
:101BE000844026432800800847F820601F4C206866
:101BF00090434F68FF0300D5104320601C4E3468AB
:101C000094434F68BF0300D514433460194E3068C5
:101C100090434F68FF0200D510433060164E346881
:101C200094434F68BF0200D5144334606D1C02E733
:101C3000F1BC70471300DBB2002B03D00B009BB24A
:101C4000836102E00B009BB2836270476010024028
:101C5000080001400004004800080048000C00484B
:101C6000001000480014004800180048000401401B
:101C700004040140080401400C04014062F30F22F7
:101C800062F31F42401810F0030308D0C91A1FD393
:101C9000DB0748BF00F8012D28BF20F8022D1300F4
:101CA00030B414461546103928BF20E93C00FAD854
:101CB000490728BF20E90C0048BF40F8042D8900DF
:101CC00028BF20F8022D48BF00F8012D30BC704716
:101CD000C91818BF00F8012DCB0728BF00F8012D47
:101CE000704730B4002513E050F8042BD30744BFED
:101CF000A9F101039A18091F042942F8045BFAD2DA
:101D000013468C0744BF15809B1CC90748BF1D7034
:101D100050F8041B0029E7D130BC70472DE9F84189
:101D200093B000F039F900F04CF800F0CBF800F077
:101D30009DF84022002103A8FFF770FE0026834F84
:101D4000386850F0200038604FF4FA7000F036F92F
:101D5000DFF8FC81D8F8000030F48040C8F80000BB
:101D60004FF4FA7000F02AF94FF48040C8F80000F0
:101D70004FF4FA7000F022F9386830F02000386033
:101D80004FF4FA7000F01AF900200500412DD6DA60
:101D900042F2107002900120019003A828440090A4
:101DA00001232800020092B2BE216A48FFF79EFB81
:101DB00004002000C0B2002801D1012006006D1CE3
:101DC000E4E780B5B8B04422002105A8FFF726FE5D
:101DD000142200216846FFF721FE8822002116A860
:101DE000FFF71CFE1020059001200B9000200C90A6
:101DF00060200D9002200F90012010900120119082
:101E00002820129007201390022014900220159091
:101E100005A8FEF7B9F9002801D000F0A5F80F20B9
:101E200000900320019000200290002003900020E9
:101E3000049004216846FEF7CCFC002801D000F095
:101E400093F88020169000202B9016A8FEF750FFE4
:101E5000002801D000F088F84FF40070FEF76EFE05
:101E6000002801D000F080F839B000BD10B5394C21
:101E700039482060394860600020A0600120E0609F
:101E800000202061002060610020A0610020E0614E
:101E9000002020622000FFF7C3FA002801D000F0E4
:101EA00063F80021200000F09DF8002801D000F028
:101EB0005BF80021200000F0C7F8002801D000F0F6
:101EC00053F810BD10B586B01422002101A8FFF709
:101ED000A5FD2348016851F001010160016811F07E
:101EE000010100910099016851F002010160006850
:101EF00010F0020000900098002220215FF0904036
:101F0000FFF798FE174C00224FF480412000FFF7A6
:101F100091FE2020019001200290002003900020DB
:101F2000049001A95FF09040FFF782FD4FF48040DC
:101F3000019001200290002003900020049001A94C
:101F40002000FFF775FD06B010BD0000140000482A
:101F5000140400480C00002000580040EC9C901035
:101F60004C10024000040048704730B40EE0026894
:101F7000436802440830DC0744BFA9F10104E318B8
:101F800052F8045B43F8045B091FF9D150F8041BB5
:101F90000029ECD130BC704710B500240320FEF7B7
:101FA00077FE0020FEF78EFD002802D001200400FD
:101FB00001E0FFF7E1FC2000C0B210BD70B50400E5
:101FC000FEF7B0FD0500260016F1010F02D004480F
:101FD00000783618FEF7A6FD401BB042FAD370BD5C
:101FE00008000020020092F8410020282AD192F82F
:101FF0004000012801D1022025E0012082F84000A4
:10200000242082F8410010680068400840001368EE
:1020100018601068006830F4805013681860106809
:1020200000680843136818601068006850F00100E9
:1020300013681860202082F84100002082F84000D8
:10204000002000E00220704710B4020092F8410026
:10205000202827D192F84000012801D1022022E057
:10206000012082F84000242082F8410010680068B6
:1020700040084000136818601068036833F4706308
:1020800053EA0123106803601068006850F00100F3
:1020900014682060202082F84100002082F840006F
:1020A000002000E0022010BC7047000010480168CA
:1020B00051F4700101600F49086850F00100086098
:1020C00000200D4A10600A680C4802400A604FF474
:1020D00080500B4A1060086830F4802008600020AF
:1020E000084908605FF00060074908607047000019
:1020F00088ED00E00010024008100240FFFFF6EA01
:102100000C1002401810024008ED00E0A08601000B
:10211000400D0300801A060000350C0040420F00FD
:1021200080841E0000093D0000127A000024F400A3
:1021300000366E010048E801006CDC0210B507496A
:1021400079441831064C7C44163404E00A68081DB2
:10215000114488470146A142F8D110BD2C0000006F
:102160004C0000004EF68851CEF20001086840F4A1
:1021700070000860BFF34F8FBFF36F8F4FF0007098
:10218000E1EE100A704700005BFBFFFF500000000B
:102190000C00002000000000D3FDFFFF0C00000039
:1021A000B0000000000000200000000000F00DF86A
:1021B000002801D0FFF7C2FFAFF300800020AFF38B
:1021C0000080FFF7ABFD00F002F80120704700F03F
:1021D00001B800000746384600F002F8FBE70000AF
:1021E00080B5AFF30080024A11001820ABBEFBE7B8
:1021F0002600020003480168034A1278891801602A
:10220000704700BF58000020080000207047FEE71C
:10221000FEE7FEE7FEE770477047704780B5FFF7BF
:10222000E9FF01BD000000000000000001020304FE
:10223000060708090148804701480047AD2000080B
:1022400045220008AFF30080FFF78CFFFFF7AEFFD9
:102250001000000000093D0001000000FFF7FEBF74
:10226000FFF7FEBFFFF7FEBFFFF7FEBFFFF7FEBFA2
:10227000FFF7FEBFFFF7FEBFFFF7FEBFFFF7FEBF92
:10228000FFF7FEBFFFF7FEBFFFF7FEBFFFF7FEBF82
:10229000FFF7FEBFFFF7FEBFFFF7FEBFFFF7FEBF72
:1022A000FFF7FEBFFFF7FEBFFFF7FEBFFFF7FEBF62
:1022B000FFF7FEBFFFF7FEBFFFF7FEBFFFF7FEBF52
:1022C000FFF7FEBFFFF7FEBFFFF7FEBFFFF7FEBF42
:1022D000FFF7FEBFFFF7FEBFFFF7FEBFFFF7FEBF32
:1022E000FFF7FEBFFFF7FEBFFFF7FEBFFFF7FEBF22
:1022F000FFF7FEBFFFF7FEBFFFF7FEBFFFF7FEBF12
:10230000FFF7FEBFFFF7FEBFFFF7FEBFFFF7FEBF01
:10231000FFF7FEBFFFF7FEBFFFF7FEBFFFF7FEBFF1
:10232000FFF7FEBFFFF7FEBFFFF7FEBFFFF7FEBFE1
:10233000FFF7FEBFFFF7FEBFFFF7FEBFFFF7FEBFD1
:10234000FFF7FEBFFFF7FEBFFFF7FEBFFFF7FEBFC1
:10235000FFF7FEBFFFF7FEBFFFF7FEBFFFF7FEBFB1
:10236000FFF7FEBFFFF7FEBFFFF7FEBFFFF7FEBFA1
:10237000FFF7FEBFFFF7FEBFFFF7FEBFFFF7FEBF91
:10238000FFF7FEBFFFF7FEBFFFF7FEBFFFF7FEBF81
:0C239000FFF7FEBFFFF7FEBFFFF7FEBF28
:040000050800224588
:00000001FF
